:020000040000FA
:10000000020026AF885388AF758D96EF5440FEEFFF
:1000100054104E42882275A60975A72075CC092276
:100023000200B5120218787FE4F6D8FD75816502E7
:100033000070020183E493A3F8E493A34003F680E2
:1000430001F208DFF48029E493A3F85407240CC8D1
:10005300C333C4540F4420C8834004F4568001467C
:10006300F6DFE4800B01020408102040809001EACF
:10007300E47E019360BCA3FF543F30E509541FFEA7
:10008300E493A360010ECF54C025E060A840B8E418
:1000930093A3FAE493A3F8E493A3C8C582C8CAC59B
:1000A30083CAF0A3C8C582C8CAC583CADFE9DEE72D
:1000B30080BEC0E0C0D075D000C000C006C007300D
:1000C3009824AF257E00EF7002F523C2988599220C
:1000D300C3EF9440EE64809480500B74262523F87C
:1000E300A62205250523309941C299E525640160BF
:1000F30033E525B5230375240074262524F8E6F596
:1001030022FFC39461748094804010D3EF947A7477
:10011300809480500674E02522F5228522990524D7
:1001230015258006752500752101D007D006D0005E
:10013300D0D0D0E032E4F5A77597A5F50EF50DF50F
:100143000CF50BE47F19FEFDFCAB0EAA0DA90CA860
:100153000BC31201D9501800E50E2401F50EE43546
:100163000DF50DE4350CF50CE4350BF50B80D4A23D
:10017300AF9200C2AF7597DE7597ADA20092AF2222
:100183007508007509031201B4C2B4D2A2D2AFE557
:1001930021640170FAE52560F6E522640D600BE544
:1001A30022640A6005E522B47EE5E4F521D2998054
:1001B300DE85A70A12013812022612021F12001648
:1001C3001201FA12020412000312020E12022A1280
:1001D300022E850AA722EB9FF5F0EA9E42F0E99DE5
:1001E30042F0E89C45F02201250001230001240090
:1001F30001210101220000E4F5A775E34075E10147
:1002030022E4F5A9E5A9548060FA22758E08758960
:1002130020438840227597DE7597AD2275F27F756E
:0F022300D5802275A410224398102275A81022AE
:00000001FF
