:020000040000FA
:1000000002064FE4F5A77597A5F543F542F541F5CE
:1000100040E47F19FEFDFCAB43AA42A941A840C3BE
:100020001204CF501800E5432401F543E43542F5AE
:1000300042E43541F541E43540F54080D4A2AF9229
:1000400009C2AF7597DE7597ADA20992AF2202077C
:1000500051222202056EE53A242EF8E6053A22786E
:100060002B300702782EE475F0011205380204E007
:100070002000EB7F2ED2008018EF540F2490D43450
:1000800040D4FF30040BEF24BFB41A0050032461A6
:10009000FFE53B6002153B053EE53E7002053D3045
:1000A000070D782BE475F001120538EF02052602E2
:1000B000004E7403D2078003E4C207F53A8B2B8A03
:1000C0002C892DE4F53BF53DF53EE53B60077F20AF
:1000D00012009180F5753CFFC201C200C202C2034A
:1000E000C205C206C20812005FFF700D3007057F0F
:1000F000001200A2AF3EAE3D22B4255FC2D5C204BD
:1001000012005FFF24D0B40A00501A75F00A783B41
:1001100030D50508B6FF0106C6A426F620D5047022
:1001200002D20380D924CFB41A00EF5004C2E5D222
:10013000040202A2D20180C6D20080C0D20280BCDA
:10014000D2D580BAD20580B47F2012009120020758
:100150007401B53B0040F1120056FF1200910200FD
:10016000CAD208D2068095120056FB120056FA1227
:100170000056F94A4B700679737A037BFF20022EF2
:10018000E53B602A7E008E827583001204F96006CA
:100190000EEE653C70F0C2D5EBC0E0EAC0E0E9C00D
:1001A000E0EE1202E9D0E0F9D0E0FAD0E0FB120470
:1001B000E0FF60AAEBC0E0EAC0E0E9C0E012009115
:1001C000D0E02401F9D0E03400FAD0E0FBE53C04B3
:1001D00060DCD53CD980877BFF7A0279E5D202804A
:1001E0009C791080027908C206C2088008D2D579AD
:1001F0000A8004790AC2D5E53C047002F53CE4FAB1
:10020000FDFEFF120056FC7B08200113120056FD74
:100210007B1030000A120056FE120056FF7B20ECC5
:100220003382D592D55013C3E43000069FFFE49E7D
:10023000FEE42001039DFDE49CFCE4CBF8C201EC4C
:10024000700CCFCECDCCE824F8F870F38017C3EF54
:1002500033FFEE33FEED33FDEC33FCEB33FB994023
:1002600002FB0FD8E9EB300105F8D0E0C448B20139
:10027000C0E00AEC4D4E4F78207B0070C2EAB53CDE
:100280000040BCC0E01202EBD0F0D0E0200104C47A
:10029000C0E0C4B201C0F012007AD0F0D5F0EB0299
:1002A00000CA12054801675301E15801384C013476
:1002B0004201E54F01ED4401ED49014D4301F35584
:1002C00001D74601D74501D747039350013C2D0183
:1002D000402E01632B014423016120037C2A00FC92
:1002E000480000015B3F3F3F00790AA2D52003147C
:1002F000300509B910020404B9080104A2D520068A
:10030000025001042002689202B53B005034C0E064
:100310007F203003197F30A20272067205500F123F
:100320000342C202C206C205C2087F30800F3005F8
:1003300003E9C0E0120091300503D0E0F9D0E0B548
:100340003BCC3005177F30B9100C1200917F58302C
:1003500004077F788003B908031200913002057FFB
:100360002D0200917F202008F87F2B2006F3229297
:100370000280CF286E756C6C2900D20112005630B5
:1003800001F8C201783B30D50108F60200FC2D507F
:100390004349581200562403B405004001E4900379
:1003A0008E93120082743A120082D203753B0402CB
:1003B00001E1E88FF0A4CC8BF0A42CFCE98EF0A432
:1003C0002CFC8AF0EDA42CFCEA8EF0A4CDA8F08BD6
:1003D000F0A42DCC3825F0FDE98FF0A42CCD35F01C
:1003E000FCEB8EF0A4FEA9F0EB8FF0A4CFC5F02EAD
:1003F000CD39FEE43CFCEAA42DCE35F0FDE43CFC16
:100400002275F008758200EF2FFFEE33FECD33CD5D
:10041000CC33CCC58233C5829BED9AEC99E58298AA
:10042000400CF582EE9BFEED9AFDEC99FC0FD5F0A9
:10043000D6E4CEFBE4CDFAE4CCF9A88222B800C120
:10044000B90059BA002DEC8BF084CFCECDFCE5F08D
:10045000CBF97818EF2FFFEE33FEED33FDEC33FCD4
:10046000EB33FB10D703994004EB99FB0FD8E5E47D
:10047000F9FA227818EF2FFFEE33FEED33FDEC335F
:10048000FCC933C910D7059BE99A4007EC9BFCE9EE
:100490009AF90FD8E0E4C9FAE4CCFB2275F010EF2A
:1004A0002FFFEE33FEED33FDCC33CCC833C810D76D
:1004B000079BEC9AE899400AED9BFDEC9AFCE899C1
:1004C000F80FD5F0DAE4CDFBE4CCFAE4C8F922EB7E
:1004D0009FF5F0EA9E42F0E99D42F0E89C45F0224B
:1004E000BB010689828A83E0225002E722BBFE021A
:1004F000E32289828A83E49322BB010CE58229F5F9
:1005000082E5833AF583E0225006E92582F8E62267
:10051000BBFE06E92582F8E222E58229F582E58321
:100520003AF583E49322BB010689828A83F0225044
:1005300002F722BBFE01F322FAE6FB0808E6F925E2
:10054000F0F618E6CA3AF622D083D082F8E4937027
:1005500012740193700DA3A393F8740193F582882C
:1005600083E4737402936860EFA3A3A380DFC0E009
:10057000C0F0C083C082C0D075D000C000C001C030
:1005800002C003C004C005C006C00775250075245D
:1005900000752300752200C2EDAFBDAEBEE4FCFDC8
:1005A000E50B2FF50BE50A3EF50AED3509F509ECEB
:1005B0003508F508E50D150D7002150CE50D450C17
:1005C0007072750C08F50DFB7A08F9F8AF0BAE0ADE
:1005D000AD09AC0812043D8F258E248D238C227525
:1005E0000B00750A00750900750800E47FE47E0CB5
:1005F000FDFCAB25AA24A923A8221203B2E47BFFA9
:100600007A0FF9F812043D8F298E288D278C2685C4
:10061000A72A75A7007BFF7A0779EC852931852801
:100620003085272F85262E1200B8852AA7AE28AF41
:100630002912070CD007D006D005D004D003D00271
:10064000D001D000D0D0D082D083D0F0D0E0321210
:100650000051787FE4F6D8FD7581430206990207C0
:100660008AE493A3F8E493A34003F68001F208DF41
:10067000F48029E493A3F85407240CC8C333C4546A
:100680000F4420C8834004F456800146F6DFE4801E
:100690000B01020408102040809007A4E47E01931F
:1006A00060BCA3FF543F30E509541FFEE493A360F0
:1006B000010ECF54C025E060A840B8E493A3FAE44B
:1006C00093A3F8E493A3C8C582C8CAC583CAF0A39C
:1006D000C8C582C8CAC583CADFE9DEE780BE85A770
:1006E0003F1200031207D71207DE1207AF1207B935
:1006F0001207641207C31207771207381207E512B0
:1007000000521207971207CD853FA722E4FDC3EFE1
:1007100094E7EE9407500BEF9483EE940740030D9B
:100720008013C3EF9413EE940A500AEF94AFEE9443
:100730000940027D028D9222E5C8540453C8FB751E
:10074000CFFF75CE3475CBFF75CA3443C80442C899
:1007500022BF0A083099FDC29975990D3099FDC2E2
:10076000998F992275B30275BB0D75DF2375BC088F
:1007700075B98343E8C022AF885388AF758DF7EF12
:100780005440FEEF54104E4288221206DEC2B4D20C
:10079000A2D299D2AF80FE75A7207594437596FFBB
:1007A00075959622040800000000020C08000075F0
:1007B000A60975A72075CC0822E4F5A775E3417555
:1007C000E10122E4F5A9E5A9548060FA22E4F5A745
:1007D00075E60875A8802275A41075D4CF2275F22D
:1007E0007F75D5FF22758920438840220A50312E1B
:1007F0003720766F6C746167653A20256C64206DD4
:03080000560A0095
:00000001FF
