S02A000062616E616E615F636F6F70657261746976655F6D756C7469706C617965725F67616D652E73333759
S11300000000022091010000BD010000BD010000BC
S1130010BD010000BD010000BD010000BD010000E4
S1130020BD010000BD010000BD010000BD010000D4
S1130030BD010000BC010000BD0100001D21000045
S1130040BD010000511F0000BD010000BD01000002
S1130050BD010000BD010000BD010000BD010000A4
S1130060BD010000BD010000BD010000951E00009F
S1130070BD010000BD010000BD010000BD01000084
S1130080BD010000BD010000BD010000BD01000074
S1130090BD010000BD010000BD010000BD01000064
S11300A0BD010000BD010000BD010000BD01000054
S11300B0BD010000BD010000BD010000BD01000044
S11300C0BD010000BD010000BD010000BD01000034
S11300D0BD010000BD010000BD01000010B5054CCC
S11300E0237833B9044B13B10448AFF300800123E0
S11300F0237010BD74000020000000005025000093
S113010008B5034B1BB103490348AFF3008008BD96
S1130110000000007800002050250000154B002B43
S113012008BF134B9D46A3F5803A00218B460F462A
S11301301348144A121A02F067F80F4B002B00D030
S113014098470E4B002B00D0984700200021040054
S11301500D000D48002802D00C48AFF3008002F0D7
S11301602FF82000290001F0FBFF02F015F800BF72
S11301700000080000000220000000000000000051
S113018074000020B0000020000000000000000007
S1130190064880470649074A074B9A42BEBF51F8B2
S11301A0040B42F8040BF8E7FFF7B8FF350300002F
S11301B05C2500000000002074000020FEE700BF62
S11301C080B400AF034BDB6C1B0EDBB21846BD469C
S11301D080BC7047B081E00F80B582B000AF00F002
S11301E01FF87860074B5B6803F00F037A6822FA04
S11301F003F37B60044A7B6813607B681846083706
S1130200BD4680BD00800C400800002080B400AFD3
S1130210024B1846BD4680BC704700BF006CDC0230
S113022080B582B000AF334BDB6A03F47053B3F58F
S1130230805F0AD0B3F5005F03D0B3F5006F08D038
S11302400BE02D4B1B687B6047E04FF400437B6061
S113025043E02A4B1B687B603FE0264BDB6803F4DA
S1130260E063B3F5007F1BD0B3F5007F05D8002B06
S113027024D0B3F5807F16D02BE0B3F5806F09D07E
S1130280B3F5A06F03D0B3F5407F06D021E01C4B3B
S11302907B6021E01B4B7B601EE01B4B7B601BE003
S11302A01A4B7B6018E0FFF78BFF0346122B02D931
S11302B0174B7B6010E0174B7B600DE0FFF780FF6E
S11302C00346122B02D9144B7B6005E0134B7B6071
S11302D002E000237B6000BF00BF064B1B689B0B42
S11302E003F0070301337A68B2FBF3F318460837C7
S11302F0BD4680BD00800C400400002000000020AA
S1130300003FAB01406F4001809FD500C0D8A700DB
S113031040B56400C0CF6A00804F120040420F0015
S113032080B400AF024B1B681846BD4680BC7047C2
S11303300000002080B400AF034B044A9A6000BF61
S1130340BD4680BC704700BF00ED00E00000000027
S113035080B487B000AFF860B9607A60FB6803F1DD
S11303600473DA00BB6813449B007B617B697A6881
S11303701A6000BF1C37BD4680BC704780B485B08E
S113038000AF786039607B6803F10473DA003B687E
S113039013449B00FB60FB681B6818461437BD467A
S11303A080BC704780B485B000AF78607B68002B58
S11303B003D07B68B3F5004F00BF7B68B3FA83F3C7
S11303C0DBB2C3F11F03FB60FB6818461437BD465C
S11303D080BC704780B400AF034BDB6C1B0CDBB2FA
S11303E01846BD4680BC7047B081E00F80B582B02E
S11303F000AFFFF7EFFF03464A2B04D0792B02D05E
S1130400482B23D024E0154B1B699BB21B029BB2E3
S113041003F47C53FB80114B9B691B091B0103F004
S1130420F0039AB2FB881343FB800C4BDB691B0976
S113043003F00F039AB2FB881343FB80FB88B3F5E8
S1130440017F01D3064B04E0064B02E0054B00E0BC
S1130450002318460837BD4680BD00BFD0FF0FE01B
S113046000366E010048E80180B584B000AF7860C2
S11304700123FB60FFF7BAFF02467B68934204D86E
S11304800023FB600023BB600BE0FFF7AFFF0346D4
S11304905B007A689A4202D80123BB6001E0022320
S11304A0BB60FA681E210848FFF752FF064B5B68E1
S11304B023F48072BB681B02034913434B6000BFE3
S11304C01037BD4680BD00BF00800C4080B485B0AD
S11304D000AF78603960204B5B6803F00703FB6072
S11304E0FB68012B01D9042B02D10023FB7202E02B
S11304F00123FB7200BF7B68184A934207D9FB7A39
S1130500002B01D0052300E00423FB6016E07B6888
S1130510124A93420BD87B68114A934207D9FB7A5B
S1130520002B01D0032300E00123FB6006E0FB7AEB
S1130530002B01D0022300E00023FB60064B5B6824
S113054023F007020449FB6813434B6000BF1437D0
S1130550BD4680BC704700BF00000C400048E80165
S11305600024F40080B582B000AF0E4BDB6B002B8F
S113057014BF01230023FB710A4B41F67132DA6385
S1130580FFF744FE034600211846FFF79FFFFB795F
S1130590002B02D0034B0022DA6300BF0837BD46AC
S11305A080BD00BF00000C4080B584B000AF78600F
S11305B039600C4BDB6B002B14BF01230023FB734E
S11305C0084B41F67132DA6339687868FFF77EFFC9
S11305D0FB7B002B02D0034B0022DA6300BF1037F1
S11305E0BD4680BD00000C4080B483B000AF78608D
S11305F0094B5B6D03F00103002B07D100BF064BD1
S11306001A6D7B681340002BF9D100E000BF0C3752
S1130610BD4680BC704700BF00800C4080B400AF72
S113062000BFBD4680BC704780B400AF00BFBD466C
S113063080BC704790B585B000AF786039607B6846
S11306401B0903F00F03FB60FB68013B0C2B00F25A
S11306500F8101A252F823F08D06000071080000FA
S113066071080000C1060000710800007108000054
S1130670090700005B0700001D0800007108000066
S11306807108000071080000E90600003B68002BB7
S113069002D03B68082B00BFFFF764FF774B1B6851
S11306A023F4E0323B68013B9B03744913430B6022
S11306B0FFF792FDB8600021B868FFF775FFD8E036
S11306C03B68002B03D03B68B3F5007F00BF38685C
S11306D0FFF768FE3860694B9B6823F00F02674997
S11306E03B6813438B60C4E03868FFF75BFE034646
S11306F0013B3B60614B5B6823F480723B681B02E7
S11307005E4913434B60B4E03B68002B03D03B6865
S1130710B3F5007F00BFFFF725FFFFF75DFD02463D
S11307203B68B2FBF3F31846FFF79EFE3868FFF709
S113073039FE3860514B5B6823F00F024F493B6828
S113074013434B60FFF748FDB8600021B868FFF71A
S11307502BFFB868FFF788FE8BE07B68484A93421A
S11307601ED0474A934203D8464A934207D054E0E6
S1130770454A934225D0454A93423ED04DE0042059
S1130780FFF732FF3868FFF70DFE38603B4B9B6E76
S113079023F0F0023B681B01384913438B663CE0AD
S11307A00420FFF721FF3868FFF7FCFD3860334B66
S11307B09B6E23F470623B681B02304913438B66C3
S11307C02BE03B680F2B02D93B68802B00BF042031
S11307D0FFF70AFF3868FFF7E5FD3860274B9B6E8B
S11307E023F440541020FFF7DDFD02463B689B1ABA
S11307F01B03224A234393660FE00420FFF7F4FE11
S11308003868FFF7CFFD38601C4B9B6E23F0030262
S11308101A493B6813438B6600BF2AE07B681C4A75
S1130820934203D01B4A934210D020E04020FFF7AC
S1130830DBFE3868FFF7B6FD3860104B1B6F23F002
S113084003020E493B6813430B6710E04020FFF797
S1130850CBFE3868FFF7A6FD3860084B1B6F23F00A
S113086030023B681B01054913430B6700BF00E0DE
S113087000BF00BF1437BD4690BD00BF00800C40D0
S1130880802616008016120080002A0080062E00A2
S113089090071A0090171C0080B586B000AF7860EE
S11308A00B46FB7000233B617B681B0A03F00F03BC
S11308B0013B092B44D801A252F823F0F7080000A9
S11308C0FD080000E508000041090000410900009E
S11308D0030900000D09000041090000410900005E
S11308E017090000184B7B61FFF776FC0346184696
S11308F0FFF7BAFD12E0154B7B610FE0144B7B61EF
S11309000CE0144B7B6101233B6107E0124B7B61DC
S113091010233B6102E0114B7B6100BF7B681B0B22
S113092003F01F03FB603B69002B02D03869FFF71B
S11309305BFEFB781A46F9687869FFF709FD00E069
S113094000BF1837BD4680BD40800C4008800C4075
S113095044800C4058800C4060800C4078800C40EF
S113096080B588B000AF78600B46FB700323FB6151
S11309700323FB7600233B617B6803F00F03FB60DA
S1130980FB68013B062B00F2288101A252F823F0F8
S1130990AD090000830A0000830A0000DB0B00009D
S11309A0DB0B0000490B0000730B0000FB78023BDB
S11309B0082B00F2148101A252F823F0E10900008F
S11309C0EB090000F5090000370A0000DF0B000006
S11309D0DF0B0000DF0B0000DF0B0000DF0B00006B
S11309E00423FB610023FB7631E00323FB61012335
S11309F0FB762CE00223FB610223FB76FFF7F6FC77
S1130A00034601331846FFF72FFDFFF789FC024622
S1130A10764B9A4206D9764B1B68754A43F06003BD
S1130A20136014E0724B1B6823F06003704A43F0B8
S1130A30200313600BE00123FB610323FB76FFF724
S1130A40D5FC034601331846FFF70EFD00BFFB7EBD
S1130A5001220121184600F0EDF8FFF783FDFFF7AE
S1130A60DDFD634AFB695362FFF7B6FBB860B86803
S1130A70FFF7FAFC0021B868FFF796FDFFF7D4FDF5
S1130A80B0E0FB78013B092B00F2AB8001A252F8E5
S1130A9023F000BFBD0A0000C30A0000D30A00000F
S1130AA0E30B0000E30B0000E30A0000E30B00008B
S1130AB0E30B0000E30B0000FF0A000000237B614E
S1130AC022E001220121002000F0B4F802237B611E
S1130AD01AE001220121012000F0ACF801237B611E
S1130AE012E0FFF779FBB860B868FFF7BDFC01229C
S1130AF004214048FFF72CFC03237B6104E000231E
S1130B007B6101233B6100BFFB68022B0DD1384B95
S1130B109B6A23F4803323F003037A691A433B6905
S1130B201B04334913438B625CE0314B9B6A23F40F
S1130B30801323F00C037A6992001A433B691B0566
S1130B402B4913438B624DE0FB78072B02D0092B12
S1130B5007D047E0264B1B68254A23F080531360D7
S1130B6006E0234B1B68224A43F08053136000BF06
S1130B7038E0FB78032B14D0092B22D0022B00D0B1
S1130B8030E001220121002000F054F8184B4022EB
S1130B905A6200BF164BDB6A03F48033002BF9D092
S1130BA01AE001220121012000F044F8104B6022D8
S1130BB05A6200BF0E4BDB6A03F40033002BF9D0FA
S1130BC00AE00B4B20225A6200BF094BDB6A03F494
S1130BD00043002BF9D000BF04E000BF02E000BFD7
S1130BE000E000BF2037BD4680BD00BF0048E801DB
S1130BF000800C4040800C4080B483B000AF78602B
S1130C000B4B9B6D03F00803002B0CD17B6803F0A6
S1130C1007037B60064BDB6F23F0070204497B6804
S1130C201343CB6700E000BF0C37BD4680BC704760
S1130C3000800C4080B586B000AF0346FB710B46C4
S1130C40BB7113467B71FB79042B48D801A252F87F
S1130C5023F000BFA10C0000930C0000770C0000EF
S1130C60690C0000850C000001233B610223FB603A
S1130C7001237B611DE004233B610823FB60032304
S1130C807B6116E010233B612023FB6005237B611D
S1130C900FE040233B618023FB6007237B6108E076
S1130CA04FF480733B614FF40073FB6009237B6155
S1130CB000BFBB79002B0ED00B4A3B6913627B79D2
S1130CC0002B0DD000BF79690848FFF757FB034696
S1130CD0002BF8D004E0044AFB68136200E000BF74
S1130CE01837BD4680BD00BF00800C402C800C40EE
S1130CF080B487B000AFF860B9607A60FB6803F134
S1130D000473DA00BB6813449B007B617B697A68D7
S1130D101A6000BF1C37BD4680BC704780B485B0E4
S1130D2000AFF860B9607A60FB681A68BB68DB439F
S1130D301A407B681A43FB681A6000BF1437BD462B
S1130D4080BC704780B483B000AF7860044A7B688D
S1130D50C2F81C3100BF0C37BD4680BC704700BFD1
S1130D600060004080B483B000AF03463960FB717B
S1130D70FB79002B0DD0FB79012B0AD0FB79022BD8
S1130D8007D0FB79032B04D0FB79042B01D0FB792A
S1130D90052B01223B6802FA03F30749FA79184646
S1130DA01346DB0013449B000B441433186000BF4C
S1130DB00C37BD4680BC70470060004080B483B0EF
S1130DC000AF03463960FB71FB79002B0DD0FB7932
S1130DD0012B0AD0FB79022B07D0FB79032B04D01B
S1130DE0FB79042B01D0FB79052B01223B6802FA25
S1130DF003F30749FA7918461346DB0013449B00B2
S1130E000B441033186000BF0C37BD4680BC7047DC
S1130E100060004080B586B000AFB9607A601A46C1
S1130E200346FB731346BB7300237B61FB7B002BE0
S1130E300DD0FB7B012B0AD0FB7B022B07D0FB7B65
S1130E40032B04D0FB7B042B01D0FB7B052B7B689D
S1130E50072B0ED87B689B00072202FA03F1FA7B6A
S1130E607B689B0002FA03F31A461A48FFF756FF01
S1130E7010E07B68083B7B617B699B00072202FAD8
S1130E8003F1FA7B7B699B0002FA03F31A461248CA
S1130E90FFF744FFBB7B1A4679681048FFF728FF29
S1130EA097F820301A4679680D48FFF721FF012290
S1130EB07B6802FA03F31846FFF744FF97F82430DF
S1130EC01A4679680748FFF713FF00BF1837BD4675
S1130ED080BD00BF00610040046100400861004023
S1130EE00C6100401061004080B584B000AFB9606F
S1130EF07B600346FB731346BB73FB7B002B0DD057
S1130F00FB7B012B0AD0FB7B022B07D0FB7B032B43
S1130F1004D0FB7B042B01D0FB7B052BBB7B002B7C
S1130F200DD07B68002B05D0FB7BB9681846FFF712
S1130F3045FF04E0FB7BB9681846FFF713FFBB6865
S1130F40072B20D82D49FA7B1346DB0013449B0062
S1130F500B4404331A68BB689B000F2101FA03F3A6
S1130F60DB431340B97BBA68920001FA02F21146DE
S1130F702248FA7B19431346DB0013449B000344C5
S1130F800433196025E01D49FA7B1346DB00134442
S1130F909B000B4408331A68BB6803F18043083B89
S1130FA09B000F2101FA03F3DB4302EA0301BA7B3E
S1130FB0BB6803F18043083B9B0002FA03F30F482C
S1130FC0FA7B19431346DB0013449B0003440833A4
S1130FD01960BB7B002B0DD17B68002B05D0FB7BFC
S1130FE0B9681846FFF7EAFE04E0FB7BB9681846C7
S1130FF0FFF7B8FE00BF1037BD4680BD006000405B
S113100080B483B000AF0346FB71FB79002B06D09C
S1131010084B1B68074A43F00103136005E0054BC6
S11310201B68044A23F00103136000BF0C37BD465C
S113103080BC704700A0084080B487B000AFF8605F
S1131040B9607A60FB6803F10473DA00BB68134487
S11310509B007B617B697A681A6000BF1C37BD46C0
S113106080BC704780B584B000AF78601A4B5B6871
S1131070FB600020FFF7C4FFFB6823F4830323F025
S11310801F03FB607B685B68FA681343FB607B6843
S11310901B7A1A46FB681343FB607B685B7A1A462B
S11310A0FB681343FB607B68DB68FA681343FB60EF
S11310B07B681B8A1A46FB681343FB60064AFB687D
S11310C053607B681B78002B02D00120FFF798FF48
S11310D000BF1037BD4680BD00A0084080B485B075
S11310E000AF78600D4B5B68FB60FB6823F48033D2
S11310F0FB607B68002B08D0B3F5803F00D005E08F
S1131100FB6843F48033FB6000E000BF034AFB68E4
S1131110536000BF1437BD4680BC704700A0084030
S113112080B483B000AF03460A46FB8013467B714C
S11311307B79002B06D0094B9A68FB880749134337
S11311408B6006E0054B9A68FB88DB430349134038
S11311508B6000BF0C37BD4680BC704700A00840C0
S113116080B584B000AFF860B9601346FB71FB68CA
S1131170072B00F2B38001A252F823F09D11000066
S1131180C5110000ED110000151200003D12000011
S1131190651200008D120000B5120000BB681F2B01
S11311A006DCBB68FA7919464F48FFF745FF96E01D
S11311B0BB68203BBB60BB68FA7919464B48FFF714
S11311C03BFF8CE0BB681F2B06DCBB68FA79194631
S11311D04748FFF731FF82E0BB68203BBB60BB6838
S11311E0FA7919464348FFF727FF78E0BB681F2BBD
S11311F006DCBB68FA7919463F48FFF71DFF6EE02D
S1131200BB68203BBB60BB68FA7919463B48FFF7D3
S113121013FF64E0BB681F2B06DCBB68FA79194630
S11312203748FFF709FF5AE0BB68203BBB60BB6847
S1131230FA7919463348FFF7FFFE50E0BB681F2BCD
S113124006DCBB68FA7919462F48FFF7F5FE46E03D
S1131250BB68203BBB60BB68FA7919462B48FFF793
S1131260EBFE3CE0BB681F2B06DCBB68FA79194631
S11312702748FFF7E1FE32E0BB68203BBB60BB6858
S1131280FA7919462348FFF7D7FE28E0BB681F2BDD
S113129006DCBB68FA7919461F48FFF7CDFE1EE04D
S11312A0BB68203BBB60BB68FA7919461B48FFF753
S11312B0C3FE14E0BB681F2B06DCBB68FA79194631
S11312C01748FFF7B9FE0AE0BB68203BBB60BB6868
S11312D0FA7919461348FFF7AFFE00E000BF00BFDC
S11312E01037BD4680BD00BF40A0084050A0084054
S11312F044A0084054A0084048A0084058A0084012
S11313004CA008405CA00840CCA00840B4A0084011
S1131310D0A00840B8A00840D4A00840BCA0084011
S1131320D8A00840C0A0084080B487B000AFF860DF
S1131330B9607A60FB68072B00F2AC8001A252F816
S113134023F000BF6513000089130000AD130000F3
S1131350D1130000F51300001D1400004514000013
S11313606D1400004E4B1B6C7B61BB68DB437A69D8
S113137013407B61BA687B6813407A6913437B61CD
S1131380474A7B69136486E0454B5B6C7B61BB68B1
S1131390DB437A6913407B61BA687B6813407A69DE
S11313A013437B613E4A7B69536474E03C4B9B6C02
S11313B07B61BB68DB437A6913407B61BA687B68F5
S11313C013407A6913437B61354A7B69936462E015
S11313D0334BDB6C7B61BB68DB437A6913407B6115
S11313E0BA687B6813407A6913437B612C4A7B6932
S11313F0D36450E02A4BD3F8CC307B61BB68DB4329
S11314007A6913407B61BA687B6813407A69134335
S11314107B61234A7B69C2F8CC303CE0204BD3F893
S1131420D0307B61BB68DB437A6913407B61BA6867
S11314307B6813407A6913437B61194A7B69C2F85C
S1131440D03028E0164BD3F8D4307B61BB68DB4343
S11314507A6913407B61BA687B6813407A691343E5
S11314607B610F4A7B69C2F8D43014E00C4BD3F88B
S1131470D8307B61BB68DB437A6913407B61BA680F
S11314807B6813407A6913437B61054A7B69C2F820
S1131490D83000E000BF00BF1C37BD4680BC704799
S11314A000A0084080B487B000AFF860B9607A60EB
S11314B0FB68072B00F2AC8001A252F823F000BFB6
S11314C0E114000005150000291500004D15000069
S11314D07115000099150000C1150000E915000000
S11314E04E4B1B6D7B61BB68DB437A6913407B61A8
S11314F0BA687B6813407A6913437B61474A7B6906
S1131500136586E0454B5B6D7B61BB68DB437A69A1
S113151013407B61BA687B6813407A6913437B612B
S11315203E4A7B69536574E03C4B9B6D7B61BB68B1
S1131530DB437A6913407B61BA687B6813407A693C
S113154013437B61354A7B69936562E0334BDB6D02
S11315507B61BB68DB437A6913407B61BA687B6853
S113156013407A6913437B612C4A7B69D36550E04D
S11315702A4BD3F8B4307B61BB68DB437A691340F0
S11315807B61BA687B6813407A6913437B61234AA1
S11315907B69C2F8B4303CE0204BD3F8B8307B61AF
S11315A0BB68DB437A6913407B61BA687B6813408C
S11315B07A6913437B61194A7B69C2F8B83028E021
S11315C0164BD3F8BC307B61BB68DB437A691340AC
S11315D07B61BA687B6813407A6913437B610F4A65
S11315E07B69C2F8BC3014E00C4BD3F8C0307B618B
S11315F0BB68DB437A6913407B61BA687B6813403C
S11316007A6913437B61054A7B69C2F8C03000E004
S113161000BF00BF1C37BD4680BC704700A0084017
S113162080B483B000AF7860064B5B6823F4E012AB
S113163004497B6813434B6000BF0C37BD4680BC34
S1131640704700BF00A0084080B483B000AF0346D9
S1131650FB71FB79002B03D0054B01221A6602E0D3
S1131660034B00221A6600BF0C37BD4680BC70478E
S113167000A0084080B483B000AF786000BF054B81
S11316805A6E7B681340002BF9D100BF0C37BD465E
S113169080BC704700A0084080B483B000AF78607D
S11316A0054B9A6A7B68DB43034913408B6200BF96
S11316B00C37BD4680BC704700A0084080B500AF21
S11316C0002228490020FFF72FFE0022254901208F
S11316D0FFF72AFE002223490220FFF725FE0022FD
S11316E020490320FFF720FE00221E490420FFF7B3
S11316F01BFE00221B490520FFF716FE0022194994
S11317000620FFF711FE002216490720FFF70CFE02
S11317100022FF210020FFF7C5FE0022FF21012047
S1131720FFF7C0FE0022FF210220FFF7BBFE0022CC
S1131730FF210320FFF7B6FE0022FF210420FFF75C
S1131740B1FE0022FF210520FFF7ACFE0022FF219D
S11317500620FFF7A7FE0022FF210720FFF7A2FEC5
S113176000BF80BD00F00FF080B500AF0022264915
S11317700720FFF7D9FD002224490620FFF7D4FDF6
S1131780002222490520FFF7CFFD00221F49042033
S1131790FFF7CAFD00221D490320FFF7C5FD002203
S11317A01A490220FFF7C0FD002218490120FFF763
S11317B0BBFD00224FF020410020FFF7B5FD0022C1
S11317C007210720FFF76EFE002207210620FFF7FE
S11317D069FE002207210520FFF764FE002207218D
S11317E00420FFF75FFE002207210320FFF75AFEC3
S11317F0002207210220FFF755FE002207210120C5
S1131800FFF750FE00BF80BD00E00F5000E00FF076
S113181080B582B000AF0346FB7101212448FFF775
S11318203BF803212348FFF79BF840212248FEF7A9
S113183001FF0120FFF7E0F901212048FFF72CF810
S11318404FF0FF30FFF728FF1D48FFF70BFC012185
S11318500820FFF765FC01211020FFF761FC01213E
S11318608020FFF75DFC01214FF48070FFF758FCE6
S113187001214FF40070FFF753FCFB79002B0DD0CE
S11318804FF44020FFF7CCFE4FF48030FFF726FCE6
S11318900C4BDB6F0B4A43F00803D367FFF70EFFD3
S11318A04FF0FF30FFF7E6FE00BF0837BD4680BDAE
S11318B0D0433E0002001E0080002A0000362C00A7
S11318C03025000000800C4080B58AB000AF7860FD
S11318D07B6842F20E72934202DD42F20F737B6028
S11318E07B6813F57A7F01DC3D4B7B607B68002BC2
S11318F006DA786800F04CFC78600123BB6101E0F3
S11319000023BB614FF0FF30FFF7B4FE0120FFF767
S11319109BFE00F06DF80123FB6100233B6254E061
S11319207A68FB6992FBF3F22E4B83FB0213991046
S1131930D317C91A0B469B000B445B00D11A0B4604
S1131940FB82BB69012B04D13B6A032B01D1102319
S1131950FB82FB8A244A32F81330BB8200237B6269
S113196027E022493A6A1346DB009B1A5B00CA1837
S11319707B6A1344CB331B783B611C493A6A134698
S1131980DB009B1A5B00CA187B6A1344C4331B78C0
S1131990FB60BA8A7B6A42FA03F303F00103002B6B
S11319A004D001223969F868FFF7DAFB7B6A013356
S11319B07B627B6A062BD4DDFA6913469B001344D1
S11319C05B00FB613B6A01333B623B6A032BA7DD8F
S11319D00020FFF739FE00BF2837BD4680BD00BF99
S11319E019FCFFFF676666660C25000054220000A0
S11319F080B500AF002278210120FFF753FD0022BB
S1131A0078210220FFF74EFD002278210320FFF702
S1131A1049FD002278210420FFF744FD00227821AB
S1131A200520FFF73FFD002278210620FFF73AFD4D
S1131A30002278210720FFF735FD00BF80BD00009C
S1131A4080B584B000AF03463960FB710023FB60AE
S1131A500023BB60FB790E2B6BD801A252F823F054
S1131A609D1A0000A71A0000B11A0000BB1A00005A
S1131A70C51A0000CF1A0000D91A0000E31A0000AA
S1131A80ED1A0000F71A0000011B00000B1B0000F8
S1131A90151B00001F1B0000291B00000123FB6015
S1131AA00C23BB6046E00023FB602023BB6041E0C5
S1131AB00323FB602723BB603CE00223FB600C2371
S1131AC0BB6037E00023FB601C23BB6032E00323D0
S1131AD0FB600C23BB602DE00423FB600C23BB6084
S1131AE028E00023FB601E23BB6023E00523FB608A
S1131AF02723BB601EE00023FB602223BB6019E0A8
S1131B000023FB602323BB6014E00723FB600C234A
S1131B10BB600FE00523FB600C23BB600AE00623D7
S1131B20FB600C23BB6005E00723FB601D23BB6047
S1131B3000E000BF3B68002B05D00122B968F868BB
S1131B40FFF70EFB04E00022B968F868FFF708FB12
S1131B5000BF1037BD4680BD80B58AB000AF786045
S1131B60786800F061FB0346BB6100233B624FF0E1
S1131B70FF30FFF77FFD0120FFF766FDFFF7F4FD5F
S1131B8000233B6245E03A6ABB699A4203DA7B6808
S1131B901B787B6201E020237B627B6A203B7B62B3
S1131BA0214A7B6A32F81330FB820023FB6127E071
S1131BB01E493A6A1346DB009B1A9B00CA18FB694C
S1131BC013440E331B783B6118493A6A1346DB0011
S1131BD09B1A9B00CA18FB6913441B78FB60FA8AA2
S1131BE0FB6942FA03F303F00103002B05D0FB6801
S1131BF0396901221846FFF7B3FAFB690133FB6127
S1131C00FB690D2BD4DD7B6801337B603B6A0133B8
S1131C103B623B6A062BB6DD0020FFF715FD00BFD3
S1131C202837BD4680BD00BF542400005422000064
S1131C3080B584B000AF78603960114A7B68134482
S1131C4003F583731B78FB600D4A7B68134403F52B
S1131C5087731B78BB603B68002B06D0FB68B968B0
S1131C6001221846FFF77CFA05E0FB68B9680022F8
S1131C701846FFF775FA00BF1037BD4680BD00BF98
S1131C805422000080B483B000AF0346FB7197F97F
S1131C900730002B0BDBFB7903F01F02064997F991
S1131CA007305B09012000FA02F241F8232000BF4B
S1131CB00C37BD4680BC704700E100E080B483B0BF
S1131CC000AF03463960FB7197F90730002B0ADB3C
S1131CD03B68DAB20C4997F907305201D2B20B448F
S1131CE083F800230AE03B68DAB20849FB7903F081
S1131CF00F03043B5201D2B20B441A7600BF0C37D7
S1131D00BD4680BC704700BF00E100E000ED00E08C
S1131D1080B582B000AF78607B68013BB3F1807F0F
S1131D2001D301230FE00A4A7B68013B536007217A
S1131D304FF0FF30FFF7C2FF054B00229A60044BBF
S1131D4007221A60002318460837BD4680BD00BF2D
S1131D5010E000E080B500AF00F01EF800F0D5F808
S1131D6000F083F80A4B1B680A4AA2FB03239B0971
S1131D701846FFF7CDFF00F019F80020FFF748FDE3
S1131D800120FFF77FFF0B20FFF77CFF00BF80BD22
S1131D9008000020D34D621080B500AF0121024835
S1131DA0FEF77AFD00BF80BD00D2040080B500AF0D
S1131DB000F04AF900BF80BD80B586B000AF7860FE
S1131DC0FFF77CFC7B689B7A002B04D07B680B3389
S1131DD01846FFF7C1FE7B68DB79002B0CD001218C
S1131DE00820FFF72DFE7B681B7A1A467B685B7A16
S1131DF013441846FFF7B0FE7B681B78002B05D010
S1131E007B685B7801211846FFF712FF00BF183783
S1131E10BD4680BD80B483B000AF7860044A7B685F
S1131E20C2F81C3100BF0C37BD4680BC704700BFF0
S1131E300060004080B584B002AF396011461A4694
S1131E400346FB710B46BB7113467B71BA79F87973
S1131E503B7C01937B79009313463A683968FEF71B
S1131E60D9FF00BF0837BD4680BD80B582B002AF40
S1131E700120092100230122FFF736F8012009215E
S1131E800123009301230122FFF7D4FF00BFBD46C5
S1131E9080BD000080B500AF054B01225A700923B4
S1131EA0012202FA03F31846FFF7B4FF00BF80BD16
S1131EB0AC00002080B483B000AF7860044A7B6833
S1131EC0C2F81C3100BF0C37BD4680BC704700BF50
S1131ED00060004080B584B002AF396011461A46F4
S1131EE00346FB710B46BB7113467B71BA79F879D3
S1131EF03B7C01937B79009313463A683968FEF77B
S1131F0089FF00BF0837BD4680BD80B582B002AFEF
S1131F100320002100230122FEF7E6FF0320022113
S1131F2000230122FEF7E0FF032000210123009398
S1131F3001230122FFF7CEFF032002210123009396
S1131F4001230122FFF7C6FF00BFBD4680BD00008C
S1131F5080B582B000AF094B01221A70022301221E
S1131F609A400023012101FA03F313437B6078684C
S1131F70FFF7A0FF00BF0837BD4680BDAC000020BE
S1131F8080B582B000AF154B5B6AFB80144B1B68B5
S1131F90144A32F81330FA889A4205D9104B1B6858
S1131FA01049FA8821F813200D4B1B685A1C0C4960
S1131FB00A600D49FA8821F81320094B1B68032B8A
S1131FC005DD074B00221A60084B01221A6000F05D
S1131FD01BF800BF0837BD4680BD00BF00040140A8
S1131FE0A00000209800002090000020A400002001
S1131FF080B500AF034B00221A6000F005F800BF63
S113200080BD00BFA000002080B483B000AF0B4BA4
S11320101B687B600A4B00225A620A4B5B6823F000
S113202007027B68074913434B60054B01225A6042
S113203000BF0C37BD4680BC704700BFA000002025
S1132040000401400014004080B500AF2A4B9B6897
S1132050294A43F480739360274B5B6C264A43F40C
S113206000535364244B5B6C234A43F480635364EE
S1132070214B5B6C204A43F4004353641E4B5B6C5E
S11320801D4A43F0400353641C4B1B6823F4403344
S11320901A4A43F480331360184B4FF6FF72DA6127
S11320A0164B174A1A64154B0022DA60154B164A70
S11320B0DA63164B1A68164B1340144A43F007238D
S11320C043F052031360114BDB69104A23F4E063BD
S11320D0D3610E4B5B680F4A1A400C490E4B1343F5
S11320E04B600A4B1B68094A43F001031360FFF776
S11320F07FFF0023184680BD00800C40000401408F
S113210000001B0A00C00C40000003010014004042
S11321108DF8FF3008C0FFCEB028003180B500AF85
S11321200D4B1B7803F00703DBB2002B01D1FFF743
S113213027FF094B1B7803F00103DBB2002B02D10C
S1132140064B01229A70044B1B780133DAB2024B1E
S11321501A7000BF80BD00BFA8000020AC000020A2
S113216080B586B000AFFFF7F5FD3B1D0B33074983
S1132170184600F051F80123BB733B1D1846FFF7C6
S11321801BFE0620FFF7A0FBFEE700BF442500006E
S11321900028B8BF4042704708B5074B044613B146
S11321A00021AFF30080054B1868836A03B1984798
S11321B0204600F041F800BF000000004C2500005C
S11321C070B500250C4E0D4CA41BA410A54209D1DA
S11321D000F034F800250A4E0A4CA41BA410A542B2
S11321E005D170BD56F8253098470135EEE756F80D
S11321F0253098470135F2E76C0000206C00002080
S11322006C0000207000002003460244934200D179
S1132210704703F8011BF9E7034611F8012B03F893
S1132220012B002AF9D17047034613F8012B002A29
S1132230FBD1181A01387047FEE700BFF8B500BF9C
S1132240F8BC08BC9E467047F8B500BFF8BC08BC93
S11322509E467047010105070703040203020406B2
S113226005060D0E0E0E0D0D0D0D0E0E0E0E0D0DA2
S113227001010507070304020302040605060F1003
S113228010100F0F0F0F101010100F0F0101050782
S113229007030402030204060506111212121111A7
S11322A01111121212121111010105070703040280
S11322B0030204060506131C1C1C131313131C1C15
S11322C01C1C131300010507060203010302040684
S11322D004051D1E1E1E1D1D1D1D1E1E1E1E1D1D54
S11322E000010507060203010302040604051F207A
S11322F020201F1F1F1F202020201F1F0101050752
S113230007030402030204060506212222222121D6
S1132310212122222222212107050201030604236E
S1132320232323232323070502010306042424244F
S11323302424242407050201030604252525252534
S11323402525070502010306042626262626262619
S113235000010702062727272727000000000000A6
S11323600000131211100F0E0D0C000000002125A7
S1132370242601010304040203020D0E0D0D0E0DAB
S11323800E0E01010304040203020F100F0F100FBD
S1132390101001010304040203021112111112119D
S11323A012120101030404020302131C13131C136D
S11323B01C1C00010203040103021D1E1D1D1E1D21
S11323C01E1E00010203040103021F201F1F201F01
S11323D020200101030404020302212221212221DD
S11323E0222205070704040605060E0E0D0D0E0E27
S11323F00D0D050707040406050610100F0F101035
S11324000F0F050707040406050612121111121214
S1132410111105070704040605061C1C13131C1CD4
S1132420131305070603040604051E1E1D1D1E1EA8
S11324301D1D050706030406040520201F1F202078
S11324401F1F050707040406050622222121222254
S1132450212100000000001180020000000002069B
S11324600000200039000F00000040150020400447
S1132470001000223F0006005B044F0466046D0454
S11324807D0407007F046F0400000000000A0000C0
S113249080200000FFFF7704790A3900B02079001A
S11324A071007D04760406000E00700A3800B6023E
S11324B0B6083F0073043F08730C6D0401113E001D
S11324C030223628802A6E040922390080080F0041
S11324D001000800000158107C0458005E045820D4
S11324E071040C0C740404000E00700C38005414B5
S11324F054045C04730467045004080C78001C0042
S113250010201428802A0C08482000003F000600F0
S11325105B004F0066006D007D0007007F006F00C8
S113252077007C0039005E007900710040000000F3
S113253001000000030040000C0000000000000047
S113254000000000616C6D61000000000C000020C0
S10725500000000083
S10B2554C8DBFF7F0100000059
S113255C006CDC0200800000809FD50000000000AD
S113256C000000000000000000000000000000005B
S113257C000000000000000000000000000000004B
S113258C000000000000000000000000000000003B
S113259C000000000000000000000000000000002B
S11325AC000000000000000000000000000000001B
S11325BC0000000000000000000000000101000009
S10725CCDD0000002A
S90301916A
