S0180000746F756368536C696465725F747269616C2E733337DB
S11300000000022091010000BD010000BD010000BC
S1130010BD010000BD010000BD010000BD010000E4
S1130020BD010000BD010000BD010000BD010000D4
S1130030BD010000BC010000BD010000BD010000C5
S1130040BD010000BD010000BD010000BD010000B4
S1130050BD010000BD010000BD010000BD010000A4
S1130060BD010000BD010000BD010000BD01000094
S1130070BD010000BD010000BD010000BD01000084
S1130080BD010000BD010000BD010000BD01000074
S1130090BD010000BD010000BD010000BD01000064
S11300A0BD010000BD010000BD010000BD01000054
S11300B0BD010000BD010000BD010000BD01000044
S11300C0BD010000BD010000BD010000BD01000034
S11300D0BD010000BD010000BD01000010B5054CCC
S11300E0237833B9044B13B10448AFF300800123E0
S11300F0237010BD7000002000000000BC1C000034
S113010008B5034B1BB103490348AFF3008008BD96
S11301100000000074000020BC1C0000154B002BE4
S113012008BF134B9D46A3F5803A00218B460F462A
S11301301348144A121A00F0A9FD0F4B002B00D0EB
S113014098470E4B002B00D0984700200021040054
S11301500D000D48002802D00C48AFF3008000F0D9
S113016071FD2000290000F0D5FB00F057FD00BF11
S11301700000080000000220000000000000000051
S113018070000020B8000020000000000000000003
S1130190064880470649074A074B9A42BEBF51F8B2
S11301A0040B42F8040BF8E7FFF7B8FFC1010000A5
S11301B0C81C00000000002070000020FEE700BF03
S11301C080B400AF034B044A9A6000BFBD4680BCB4
S11301D0704700BF00ED00E00000000080B485B06F
S11301E000AF78607B68002B01D101237B60644BF6
S11301F01B6803F00103002B05D0614B1B68604AA8
S113020023F0010313605F4B9B6DFB605D4B9B6DA3
S11302105C4A23F00F0393655A4B1B6C594A43F015
S1130220100313647B68013B042B00F2938001A24A
S113023052F823F0490200001B030000830200006F
S1130240BF020000F10200004E4B40221A6200BFC0
S11302504C4BDB6A03F08003002BF9D0494B9B6ABB
S1130260BB60BB6823F48033BB60BB6823F003032B
S1130270BB60BB6843F00103BB60424ABB68936246
S113028068E0414B1B68414A934205D83D4B5B688B
S11302903C4A23F4807353603A4B9B6ABB60BB684F
S11302A023F48033BB60BB6823F00303BB60BB68EB
S11302B043F00303BB60334ABB6893624AE0314BAB
S11302C05B68304A43F4807353602E4B9B6ABB6077
S11302D0BB6823F48033BB60BB6823F00303BB60BB
S11302E0BB6843F00303BB60264ABB68936231E0FA
S11302F0274BDB6A264A23F00C03D362214B9B6A0B
S1130300BB60BB6843F48033BB60BB6823F003036A
S1130310BB601C4ABB6893621CE01A4BDB6A03F4A3
S11303208073002B03D1174B4FF480721A62154B64
S11303309B6ABB60BB6823F48033BB60BB6823F05B
S11303400303BB60BB6843F00203BB600D4ABB6898
S1130350936200BF0B4B9A6A0E4B1340002B01D1E2
S1130360012308E0074AFB6843F0080393650A4B3E
S113037001221A70002318461437BD4680BC70470A
S113038000A0084000800C4000000020FF47E80166
S113039000600C40030001008C00002080B483B096
S11303A000AF786039607B68002B01D100237B604B
S11303B03B68002B02D100233B6007E03B68013B14
S11303C03B603B68072B01D907233B600B4B9B6EBB
S11303D023F440527B681B03084913438B66074B85
S11303E0DB6F23F0070205493B681343CB67002307
S11303F018460C37BD4680BC704700BF00800C40D7
S113040080B582B000AF0021002000F007F87860CA
S11304107B6818460837BD4680BD000080B58AB0A9
S113042000AF786039600023FB6000233B61434BDD
S11304301B68424A23F001031360414B1B78002BD5
S113044009D10020FFF7CAFE00210020FFF7A6FF14
S11304503B4B01221A7007220121012000F0D8F938
S11304600021192000F032FA00233B6211E0FA68FF
S113047034493B6A51F833301343FB603A693149DC
S11304803B6ADB000B445B6813433B613B6A01330B
S11304903B623B6A132BEAD90123FB610F23BB6147
S11304A000237B620EE03A69BB691340002B03D042
S11304B07A6AFB6913437B62FB695B00FB61BB697E
S11304C01B01BB61FB6903F48073002BEBD0FF239A
S11304D0BB610EE0FA68BB691340002B03D07A6A53
S11304E0FB6913437B62FB695B00FB61BB691B0116
S11304F0BB61FB6903F48063002BEBD00F4A7B6A7A
S113050093600E4B5B687B617B6923F4830323F068
S11305101F037B617B6943F4800343F01F037B610A
S1130520064A7B695360054B1B68044A43F0010388
S11305301360002318462837BD4680BD00A008403C
S11305408C000020D817000080B596B000AF034699
S11305500A46FB711346BB7107F1080340220021D0
S1130560184600F093FBBB79002B00F0FA80BB79AE
S11305700E2B00F2F680BB79002B09D0BB79072B38
S113058006D8FB79203B794A32F813307B652EE09C
S1130590BB79072B08D9BB790B2B05D8FB79203BFA
S11305A0734AD35C7B6522E0BB790C2B07D1FB79C2
S11305B02F3B012202FA03F3013B7B6517E0BB7971
S11305C00D2B07D1FB792F3B012202FA03F3013BE8
S11305D07B650CE0BB790E2B07D1FB792F3B012205
S11305E002FA03F3013B7B6501E000237B650023F2
S11305F087F8533051E07B6D03F00103002B44D0A6
S113060097F85320B9795B4813461B019B1A0B4496
S113061030F81330FB64FB6C87F85230FB6C1B0A18
S113062087F84B3097F85230534AD35C87F85230EE
S113063097F85230DB0007F15802134453F8501C6A
S113064097F84B304D4A52F8332097F852300A430A
S1130650DB0007F158010B4443F8502C97F8523053
S1130660DB0007F15802134453F84C1C97F84B3045
S1130670424ADB0013445A6897F852300A43DB00BD
S113068007F158010B4443F84C2C7B6D5B087B65E8
S113069097F85330013387F853307B6D002BAAD180
S11306A0374B1B6E364A43F001031366002387F869
S11306B052304BE097F852302F4AD35C87F85130D0
S11306C097F852302F4A52F823301A68B97997F8BC
S11306D051302D48C9000B44DB0003445B68DB4305
S11306E002EA030197F85230DB0007F15802134481
S11306F053F84C2C97F85230224850F823300A43D0
S11307001A6097F85230214A52F823301A68B9799E
S113071097F851301C48C9000B4450F83330DB4380
S113072002EA030197F85230DB0007F15802134440
S113073053F8502C97F85230144850F823300A4399
S11307401A6097F85230013387F8523097F85230D4
S1130750072BAFD90A4B1B6E094A23F0010313661A
S113076000E000BF5837BD4680BD00BFF414000050
S1130770B41500001416000078180000D817000003
S113078000A00840401C000080180000601C00000D
S113079080B584B000AF78600123FB6017E07B680C
S11307A01B78002B0AD07B685A1C7A601B78FA6885
S11307B0D2B211461846FFF7C7FE05E0FB68DBB26C
S11307C019462020FFF7C0FEFB680133FB60FB687D
S11307D00B2BE4DD00BF1037BD4680BD80B485B06F
S11307E000AF78600023FB600123BB6005E0BB68B9
S11307F05B00BB60FB680133FB60BA687B689A42AC
S1130800F5D3FB6818461437BD4680BC704700001A
S113081080B588B000AFF860B9607A60FB68002BDF
S11308200CD1284B5B68274A23F480335360264B52
S1130830DB6F254A23F00803D3673FE0B868FFF76E
S1130840CDFFF8611F4B5B681E4A23F4803353606D
S11308501D4BDB6F1C4A23F00803D3671A4BDB6F75
S1130860BB61184B5B687B61BB6923F07003BB61A0
S11308707B6903F4E0137B61FB691B0103F07003E4
S1130880BA691343BB617B689B0403F4E0137A6980
S113089013437B610B4A7B6953600B4ABB69D36783
S11308A0094BDB6F084A43F00803D367054B5B68C9
S11308B023F00113034A43F0010353602037BD467C
S11308C080BD00BF00A0084000800C4080B485B00B
S11308D000AF786039600E4B5B68FB60FB6823F403
S11308E01F43FB607B681B0203F4F853FA6813434D
S11308F0FB603B68DB039BB2FA681343FB60044A6A
S1130900FB68536000BF1437BD4680BC704700BF0E
S113091000A0084080B59CB000AF00F087F8FFF756
S11309206FFD00F01FF800F0EBF80346184600F0E6
S11309305EF9B8663B1DBA6E0949184600F0AEF977
S11309403B1D1846FFF724FF0023FB6602E0FB6E05
S11309500133FB66FB6E42F20F729342F7DDE0E770
S1130960801C000080B582B000AF154B5B6AFB8031
S1130970144B1B68144A32F81330FA889A4205D98A
S1130980104B1B681049FA8821F813200D4B1B6883
S11309905A1C0C490A600D49FA8821F81320094BA6
S11309A01B68032B05DD074B00221A60084B01224C
S11309B01A6000F01BF800BF0837BD4680BD00BFB9
S11309C000040140A00000209800002090000020B6
S11309D0A400002080B500AF034B00221A6000F091
S11309E005F800BF80BD00BFA000002080B483B024
S11309F000AF0B4B1B687B600A4B00225A620A4B08
S1130A005B6823F007027B68074913434B60054B7F
S1130A1001225A6000BF0C37BD4680BC704700BF3E
S1130A20A0000020000401400014004080B500AF85
S1130A302A4B9B68294A43F480739360274B5B6C71
S1130A40264A43F400535364244B5B6C234A43F417
S1130A5080635364214B5B6C204A43F4004353642A
S1130A601E4B5B6C1D4A43F0400353641C4B1B68D4
S1130A7023F440331A4A43F480331360184B4FF67F
S1130A80FF72DA61164B174A1A64154B0022DA60BA
S1130A90154B164ADA63164B1A68164B1340144A60
S1130AA043F0072343F052031360114BDB69104AF0
S1130AB023F4E063D3610E4B5B680F4A1A400C4980
S1130AC00E4B13434B600A4B1B68094A43F0010366
S1130AD01360FFF77FFF0023184680BD00800C40A1
S1130AE00004014000001B0A00C00C400000030188
S1130AF0001400408DF8FF3008C0FFCEB02800314C
S1130B0080B483B000AF00233B6000237B6020E00F
S1130B103B685B003B60154A7B6832F8133019462A
S1130B20134A7B6832F813301A461346DB00134429
S1130B305B0013440F4A82FB0302D210DB17D31A63
S1130B40994203DA3B6843F001033B607B6801335D
S1130B507B607B68032BDBDD074B01221A603B685B
S1130B6018460C37BD4680BC704700BF900000207B
S1130B709800002067666666A400002080B489B0EF
S1130B8000AF786000233B610123BB6101237B61DB
S1130B900023FB600023FB6114E07A687B69134047
S1130BA0002B06D03A69BB6913443B61FB680133EF
S1130BB0FB60BB690233BB617B695B007B61FB69E2
S1130BC00133FB61FB69032BE7DDFB68002B07D0D6
S1130BD0FA683B6913445A1EFB68B2FBF3F301E065
S1130BE04FF0FF3318462437BD4680BC704780B5AC
S1130BF084B000AF78607868FFF7C0FFF860FB68E6
S1130C00002B01DA002304E0FB68013B012202FA15
S1130C1003F318461037BD4680BD000008B5074BE6
S1130C20044613B10021AFF30080054B1868836AB2
S1130C3003B19847204600F04FFC00BF00000000BD
S1130C40841C000070B500250C4E0D4CA41BA41090
S1130C50A54209D100F042FC00250A4E0A4CA41B0F
S1130C60A410A54205D170BD56F82530984701352A
S1130C70EEE756F8253098470135F2E76800002082
S1130C8068000020680000206C0000200346024435
S1130C90934200D1704703F8011BF9E70EB46FF0DB
S1130CA0004100B59CB01DAB0290069007910491E1
S1130CB00848094953F8042B0591006802A90193D7
S1130CC000F066F80022029B1A701CB05DF804EB79
S1130CD003B07047040000200802FFFF2DE9F0472D
S1130CE08E6882469E420C469046994637D88A8939
S1130CF012F4906F31D00223256809696F1A65696F
S1130D0005EB450595FBF3F509F101033B449D42D1
S1130D1038BF1D46530530D5294600F035FB06463D
S1130D2050B90C234FF0FF30CAF80030A38943F0C8
S1130D304003A381BDE8F0873A46216900F0B4FA84
S1130D40A38923F4906343F08003A38126613E4486
S1130D5026604E466561ED1BA5604E4500D94E46A2
S1130D6032464146206800F0AAFAA36800209B1B83
S1130D70A36023681E442660DCE72A4600F05EFB7D
S1130D8006460028E2D12169504600F0B1FAC8E7CE
S1130D902DE9F04F9DB003938B8980461D060C46C8
S1130DA016460FD50B696BB9402100F0EDFA2060AF
S1130DB0206128B90C23C8F800304FF0FF30C7E099
S1130DC0402363610023099320238DF829303023C5
S1130DD04FF0010B8DF82A3037463D4615F8013B9C
S1130DE00BB1252B3ED1B7EB060A0BD05346324646
S1130DF021464046FFF772FF013000F0A480099BB2
S1130E00534409933B78002B00F09D8000234FF05E
S1130E10FF32CDE90523049307938DF853301A93D9
S1130E202F46052217F8011B4F4800F02FFA049BA8
S1130E30D0B9D90644BF20228DF853201A0744BFE5
S1130E402B228DF853202A782A2A15D02F460020E9
S1130E500A25079A394611F8013B303B092B4DD935
S1130E60B8B10FE02F46B8E73F4A3D46801A0BFA67
S1130E7000F018430490D3E7039A111D12680391FC
S1130E80002A01DB079204E0524243F00203079276
S1130E9004933B782E2B0CD17B782A2B33D1039BE4
S1130EA002371A1D1B680392002BB8BF4FF0FF33A3
S1130EB005932E4D03223978284600F0E7F938B11E
S1130EC04023401B03FA00F0049B013703430493BF
S1130ED03978062226487E1C8DF8281000F0D6F9B1
S1130EE0002838D0234B13BB039B073323F007039D
S1130EF008330393099B4B4409936DE705FB0232C6
S1130F0001200F46A6E700230A2519460137059359
S1130F10384610F8012B303A092A03D9002BC8D0DF
S1130F200591C6E705FB012101230746F0E703AB62
S1130F3000932246104B04A94046AFF30080B0F161
S1130F40FF3F8146D6D1A3895B063FF536AF0998AA
S1130F501DB0BDE8F08F03AB00932246064B04A9F5
S1130F60404600F081F8EAE7881C00008E1C00006F
S1130F70921C000000000000DD0C00002DE9F04789
S1130F8091461F468A680B6906469342B8BF1346CA
S1130F90C9F8003091F843200C46DDF8208012B1E6
S1130FA00133C9F800302368990642BFD9F80030EC
S1130FB00233C9F80030256815F0060507D104F19D
S1130FC0190AE368D9F800209B1AAB4229DC94F88B
S1130FD043302268003318BF012392062ED404F153
S1130FE0430239463046C047013021D02368E568C2
S1130FF003F00603042B18BF0025D9F800204FF096
S1131000000908BFAD1AA368226908BF25EAE5757F
S11310109342C4BF9B1AED181A344D451AD10020CF
S113102008E00123524639463046C047013003D117
S11310304FF0FF30BDE8F0870135C2E73020E118FA
S113104081F843005A1C94F845102244023382F874
S11310504310C4E70123224639463046C0470130D5
S1131060E6D009F10109D8E72DE9F04301F1430C79
S11310700C46097E85B06E291746064698460C9A9A
S113108000F0B38022D8632936D00AD8002900F0B2
S1131090B980582900F0838004F1420584F8421095
S11310A032E0642901D06929F6D120681368050665
S11310B003F104012AD51B681160002B03DA2D22E9
S11310C05B4284F843206F480A2239E0732900F018
S11310D09D8008D86F2920D07029DDD1236843F082
S11310E02003236003E0752917D07829D4D178230D
S11310F0654884F8453055E0136804F14205191D2C
S11311001B68116084F8423001238CE01B6810F0E6
S1131110400F116018BF1BB2CFE713682568181D74
S11311201060280601D51B6802E06806FBD51B8801
S11311306F2914BF0A2208225248002184F8431060
S11311406568002DA560C0F29580216821F0040136
S11311502160002B3DD1002D40F08E806546082A89
S11311600BD12368DB0708D5236962689A42DEBF86
S1131170302305F8013C05F1FF35ACEB0503236191
S1131180CDF800803B4603AA21463046FFF7F6FE21
S113119001304DD14FF0FF3005B0BDE8F083394840
S11311A084F84510136821681D1D1B6815600A0624
S11311B00BD5CA0744BF41F0200121601BB9226846
S11311C022F0200222601022B7E74D0648BF9BB2EE
S11311D0EFE76546B3FBF2F102FB1133C35C05F89C
S11311E0013D0B460029F5D1B9E713682568181DA0
S11311F06169106028061B6801D5196002E06A065F
S1131200FBD51980002365462361B9E71368191DCE
S113121011601D6862680021284600F037F808B1A3
S1131220401B606063682361002384F84330A7E7B0
S113123023692A4639463046C0470130AAD023687C
S11312409B0713D4E068039B9842B8BF1846A3E7F2
S113125001234A4639463046C04701309AD0013509
S1131260E368039A9B1AAB42F2DCEBE7002504F136
S11312701909F5E7002BACD1037804F1420584F891
S113128042306CE7991C0000AA1C000010B5C9B2DA
S113129002449042034601D1002303E01C7801304C
S11312A08C42F6D1184610BD10B5431E0A44914233
S11312B000D110BD11F8014B03F8014FF7E7884244
S11312C010B501EB020307D8421E99420AD011F867
S11312D0014B02F8014FF8E78342F5D98118D21A7D
S11312E0D34200D110BD13F8014D01F8014DF7E7C9
S11312F038B50546002943D051F8043C0C1F002B97
S1131300B8BFE41800F0D0F81E4A1368104633B989
S1131310636014602846BDE8384000F0C6B8A342B4
S11313200BD921686218934201BF1A685B6852188E
S1131330226063600460EDE713465A680AB1A24272
S1131340FAD919685818A0420BD1206801445818DA
S113135082421960DED110685268014419605A60F3
S1131360D8E702D90C232B60D4E7206821188A42DD
S113137001BF116852680918216062605C60C9E7A6
S113138038BD00BFA800002070B5CD1C25F00305B2
S113139008350C2D38BF0C25002D064601DBA9426B
S11313A003D90C233360002070BD00F07DF8214A7E
S11313B01468214691B9204C23681BB9304600F0CB
S11313C063F820602946304600F05EF8431C24D1BF
S11313D00C233046336000F068F8E4E70B685B1BCD
S11313E018D40B2B0FD90B60CC18CD50304600F01D
S11313F05CF804F10B00231D20F00700C31AD3D0BE
S11314005A42E250D0E74B688C4216BF63601360C7
S11314100C46EBE70C464968CCE7C41C24F00304F3
S1131420A04205D0211A304600F02EF80130CFD06A
S11314302560DBE7A8000020AC000020F8B50746D3
S113144014460E4621B9BDE8F8401146FFF79CBF8B
S113145022B9FFF74DFF25462846F8BD00F026F8CF
S1131460A0420FD221463846FFF78EFF05460028DA
S1131470F2D031462246FFF717FF31463846FFF7D0
S113148037FFE9E73546E7E738B50023054C05465D
S11314900846236000F012F8431C02D1236803B10C
S11314A02B6038BDB40000207047704751F8043CED
S11314B0181F002BBCBF0B58C0187047044A0549BD
S11314C01368002B08BF0B46184410601846704779
S11314D0B0000020B8000020FEE700BFF8B500BF50
S11314E0F8BC08BC9E467047F8B500BFF8BC08BC01
S11314F09E4670470000064002014E156D15E43FFC
S1131500D9090001000A8020C03F40150020400492
S1131510004000223F2206025B040F0466046908AF
S11315207D0407007F046F0400110021400A480471
S1131530802403543B0577040F1539000F117900FB
S113154071003D04760409111E00700A3800B602C9
S1131550B6083F0073043F08730C6D0401113E008C
S113156030223628802A6E040922390080080F00B0
S11315700028080080005810780858040E245820C9
S113158040160E06701000101021001B3000541479
S113159050105C04F00006065000080C78001C0093
S11315A010201428802A0E054820C9200011090E95
S11315B0402600000086227E6DD24620290B217031
S11315C0104080523F065B4F666D7D077F6F090DAB
S11315D0614843D35F777C395E79713D76301E75FF
S11315E03815373F736B336D783E3E2A766E5B3920
S11315F0640F2308025F7C585E7B716F74100C7556
S11316003014545C7367506D781C1C14766E5B4602
S113161030700100070C06010603060506070709DA
S1131620070B060D001200110010000F0707071228
S11316300713070D0602060406060608060A060C2A
S1131640060E021202110210020F070607110613FA
S1131650070E0202020402060208020A020C020E2B
S1131660051205110510050F070507100013070FD4
S11316700002000400060008000A000C000E061216
S113168006110610060F07040000051306000001EA
S11316900003000500070109010B000D04120411E9
S11316A00410040F070300000113071104010403CD
S11316B0040504070509050B040D011201110110AD
S11316C0010F0702000000000710030103030305D4
S11316D003070409040B030D031203110310030F82
S11316E007010000000007120501050305050507B1
S11316F00609060B050D0713030000000707070082
S11317000000000000000402040404060408040AA3
S1131710040C040E0613000000000706000000007D
S1131720000004130502050405060508050A050C56
S1131730050E0013070A0000070500000000000062
S113174005000302030403060308030A030C030E43
S1131750051302130000070400000000000000004D
S11317600102010401060108010A010C010E011322
S11317700000000007030000000000000000020158
S11317800203020502070309030B020D0000000017
S11317900000070200000000000000000101010336
S11317A0010501070209020B010D040000000000FD
S11317B0070100000000000000000000000002001B
S11317C001000009000B00000708000003130700D4
S11317D000000000000000000000000000100000F5
S11317E00000000000200000000000000040000095
S11317F00000000000800000000000000000010064
S113180000000000000002000000000000000400CE
S113181000000000000008000000000000000010AC
S11318200000000000000020000000000000004054
S11318300000000000000080010000000000000023
S1131840020000000000000004000000000000008E
S1131850080000000000000010000000000000006C
S11318602000000000000000400000000000000014
S113187080000000000000000706050403020100C8
S11318800000000000000000000000000000000054
S11318900000000000000000000000000000000044
S11318A00000000000000000000000000000000034
S11318B00000000000000000000000000000000024
S11318C00000000000600000000000000060000054
S11318D00000000000600000000000000060000044
S11318E00000000000600000000000000060000034
S11318F00000000000600000000000000000000084
S113190000000000008001000000000000800100D1
S113191000000000008001000000000000800100C1
S113192000000000008001000000000000800100B1
S11319300000000000800100000000000000000022
S11319400000000000000600000000000000060087
S11319500000000000000600000000000000060077
S11319600000000000000600000000000000060067
S1131970000000000000060000000000000000005D
S11319800000000000000810000000000000081023
S11319900000000000000810000000000000081013
S11319A00000000000000810000000000000081003
S11319B0000000000000081000000000000000000B
S11319C00000000000000040000000000000006073
S11319D00000000000000060000000000000006043
S11319E00000000000000060000000000000006033
S11319F00000000000000060000000000000002063
S1131A000100000000000000010000000000008050
S1131A1001000000000000800100000000000080C0
S1131A2001000000000000800100000000000080B0
S1131A3001000000000000800000000000000080A1
S1131A400600000000000000060000000000000086
S1131A500600000000000000060000000000000076
S1131A600600000000000000060000000000000066
S1131A70060000000000000000000000000000005C
S1131A8040000000000000004000000000000000D2
S1131A9040000000000000004000000000000000C2
S1131AA040000000000000004000000000000000B2
S1131AB040000000000000000000000000000000E2
S1131AC020000000000000002000000000000000D2
S1131AD020000000000000002000000000000000C2
S1131AE020000000000000002000000000000000B2
S1131AF020000000000000000000000000000000C2
S1131B0010000000000000001000000000000000B1
S1131B1010000000000000001000000000000000A1
S1131B201000000000000000100000000000000091
S1131B301000000000000000000000000000000091
S1131B400800000000000000080000000000000081
S1131B500800000000000000080000000000000071
S1131B600800000000000000080000000000000061
S1131B700800000000000000000000000000000059
S1131B800000000000000000000000000000000051
S1131B900000000000000000000000000000000041
S1131BA00000000000000000000000000000000031
S1131BB000000000000000000000000000F00F0022
S1131BC00000000000000000000000000000000011
S1131BD00000000000000000000000000000000001
S1131BE000000000000000000000000000000000F1
S1131BF00000000000000000700000000000000071
S1131C0080000000000000008000000000000000D0
S1131C1000000000000000000000000000000000C0
S1131C200000000000000000800000000000000030
S1131C3080000000000000008000000000000000A0
S1131C4040A0084044A0084048A008404CA00840D8
S1131C50CCA00840D0A00840D4A00840D8A0084098
S1131C6050A0084054A0084058A008405CA0084078
S1131C70B4A00840B8A00840BCA00840C0A00840D8
S1131C802575000008000020232D302B2000686CEF
S1131C904C0065666745464700303132333435368B
S1131CA037383941424344454600303132333435C4
S1131CB036373839616263646566000000000000ED
S10B1CC05CE4FF7F0100000059
S1131CC8809FD500080000200000000000000000EC
S1131CD800000000000000000000000000000000F8
S1131CE800000000000000000000000000000000E8
S1131CF800000000000000000000000000000000D8
S1131D0800000000000000000000000000000000C7
S1131D1800000000000000000000000000000000B7
S1131D28000000000000000001010000DD000000C8
S90301916A
