:020000040000FA
:100000000202438F308E2F8D2E8C2DC3E534953810
:10001000FFE5339537FEE5329536FDE5319535FC44
:10002000AB30AA2FA92EA82DD3120173401FE5349F
:100030002538FFE5333537FEE5323536FDE5313518
:1000400035FCA82DC312017350037F01227F0022CB
:01005000228D
:10005300020184E88FF0A4CC8BF0A42CFCE98EF091
:10006300A42CFC8AF0EDA42CFCEA8EF0A4CDA8F01D
:100073008BF0A42DCC3825F0FDE98FF0A42CCD35E1
:10008300F0FCEB8EF0A4FEA9F0EB8FF0A4CFC5F04B
:100093002ECD39FEE43CFCEAA42DCE35F0FDE43C44
:1000A300FC2275F008758200EF2FFFEE33FECD338F
:1000B300CDCC33CCC58233C5829BED9AEC99E582D6
:1000C30098400CF582EE9BFEED9AFDEC99FC0FD562
:1000D300F0D6E4CEFBE4CDFAE4CCF9A88222B80052
:1000E300C1B90059BA002DEC8BF084CFCECDFCE51D
:1000F300F0CBF97818EF2FFFEE33FEED33FDEC3341
:10010300FCEB33FB10D703994004EB99FB0FD8E5C5
:10011300E4F9FA227818EF2FFFEE33FEED33FDEC0E
:1001230033FCC933C910D7059BE99A4007EC9BFC04
:10013300E99AF90FD8E0E4C9FAE4CCFB2275F01090
:10014300EF2FFFEE33FEED33FDCC33CCC833C810B5
:10015300D7079BEC9AE899400AED9BFDEC9AFCE8E3
:1001630099F80FD5F0DAE4CDFBE4CCFAE4C8F92230
:10017300EB9FF5F0EA9E42F0E99D42F0E89C45F0E2
:1001830022C0E0C0F0C083C082C0D075D000C000E0
:10019300C001C002C003C004C005C006C007752467
:1001A30000752300752200752100C2EDAFBDAEBE00
:1001B300E4FCFDE50B2FF50BE50A3EF50AED3509E9
:1001C300F509EC3508F508E50D150D7002150CE57C
:1001D3000D450C7050F50C750D807B80FAF9F8AF66
:1001E3000BAE0AAD09AC081200E18F248E238D22D9
:1001F3008C21750B00750A00750900750800E47FF2
:10020300E47E0CFDFCAB24AA23A922A821120056EC
:10021300E47BFF7A0FF9F81200E18F288E278D26F1
:100223008C251202D2D007D006D005D004D003D03B
:1002330002D001D000D0D0D082D083D0F0D0E03231
:10024300120050787FE4F6D8FD75813D02028D02DD
:1002530003F4E493A3F8E493A34003F68001F208C4
:10026300DFF48029E493A3F85407240CC8C333C4F0
:10027300540F4420C8834004F456800146F6DFE45B
:10028300800B01020408102040809003D5E47E0116
:100293009360BCA3FF543F30E509541FFEE493A3CE
:1002A30060010ECF54C025E060A840B8E493A3FAE0
:1002B300E493A3F8E493A3C8C582C8CAC583CAF06C
:1002C300A3C8C582C8CAC583CADFE9DEE780BE8F7B
:1002D3002C8E2B8D2A8C29E47534B5753307F532B2
:1002E300F531753832F537F536F535120003EF6021
:1002F30005C2A1C2A022E47534E1753309F532F5D4
:1003030031753832F537F536F535AF2CAE2BAD2ACE
:10031300AC29120003EF6005C2A1D2A022D2A12210
:10032300E4F5A77597A5F53DF53CF53BF53AE47F74
:1003330019FEFDFCAB3DAA3CA93BA83AC3120173CD
:10034300501800E53D2401F53DE4353CF53CE4352A
:100353003BF53BE4353AF53A80D4A2AF9200C2AF05
:100363007597DE7597ADA20092AF2285A739120368
:10037300231203FB1204021203E01204091203AF57
:100383001203EA1203C21203961204101204178511
:1003930039A722E5C8540453C8FB75CFFF75CE3483
:1003A30075CBFF75CA9A43C80442C82275B3027558
:1003B300BB0D75DF2375BC0875B98343E8C022AF55
:1003C300885388AF758DF7EF5440FEEF54104E42BB
:1003D3008822040800000000020C00800075A60BB0
:1003E30075A72075CC0822E4F5A9E5A9548060FA25
:1003F3002212036ED2AF80FE75A41075D4CF22757E
:10040300F27F75D5FF22E4F5A775E34022758920B5
:0B0413004388402275E60875A880228F
:00000001FF
